:020000040800F2
:10000000201200207D0200082F1D00086F1A000832
:100010002D1D0008B503000825260008000000007B
:100020000000000000000000000000009D0100082A
:10003000B703000800000000F901000809200008CB
:10004000970200089702000897020008970200082C
:10005000970200089702000897020008970200081C
:10006000970200089702000897020008970200080C
:1000700097020008970200089702000897020008FC
:1000800097020008970200089702000897020008EC
:1000900097020008970200089702000897020008DC
:1000A00097020008970200089702000897020008CC
:1000B00097020008F1200008970200089702000844
:1000C00097020008970200089702000897020008AC
:1000D000970200089702000897020008970200089C
:1000E000970200089702000897020008970200088C
:1000F000970200089702000897020008970200087C
:10010000970200089702000897020008970200086B
:10011000BD21000897020008970200089702000816
:10012000970200089702000897020008970200084B
:10013000970200089702000897020008970200083B
:10014000970200089702000897020008970200082B
:10015000970200089702000897020008970200081B
:10016000970200089702000897020008970200080B
:10017000970200089702000800000000000000003D
:100180009702000897020008DFF80CD000F000F991
:100190000048004745260008201200202C4B196813
:1001A000086800F05AB880F30988BFF36F8F4FF0EA
:1001B000000080F3118870470000000008480068C4
:1001C000006880F308884FF0000080F3148862B65E
:1001D00061B6BFF34F8FBFF36F8F00DF00BF00BF6B
:1001E00008ED00E0DFF80C00016841F470010160E7
:1001F000704700BF88ED00E0EFF30980BFF36F8F19
:10020000134B1A681EF0100F08BF20ED108A20E96A
:10021000F04F106009B44FF0500080F31188BFF325
:100220004F8FBFF36F8F02F0DBFD4FF0000080F3C4
:10023000118809BC1968086800F014B81EF0100F86
:1002400008BF00F014B880F30988BFF36F8F7047C0
:1002500010000020EFF30580704730C8B0E8C04FB1
:10026000FFF7A1BF30C8B0E8C04FFFF7E7BFB0EC61
:10027000088AB0EC08CAFFF7E6BF000006488047CE
:1002800006480047FEE7FEE7FEE7FEE7FEE7FEE77B
:10029000FEE7FEE7FEE7FEE7AD2000088901000863
:1002A0002DE9F05F0546002092469B4688460646AB
:1002B000814640241BE0284641464746224600F03E
:1002C00056F853465A46C01A914110D31146184663
:1002D000224600F03DF82D1A67EB01084F462246F2
:1002E0000120002100F034F817EB00094E41201ED8
:1002F000A4F10104DFDC484631462A46434600F0BB
:1003000000B830BCBDE8C09F40EA01039B0703D0A2
:1003100009E008C9121F08C0042AFAD203E011F844
:10032000013B00F8013B521EF9D27047D2B201E006
:1003300000F8012B491EFBD270470022F6E710B5EA
:1003400013460A4604461946FFF7F0FF204610BD43
:10035000202A04DB203A00FA02F100207047914085
:10036000C2F1200320FA03F3194390407047202A7A
:1003700004DB203A21FA02F00021704721FA02F34F
:10038000D040C2F120029140084319467047000056
:10039000064C074D06E0E06840F0010394E80700D2
:1003A00098471034AC42F6D3FFF7F2FEA0310008B4
:1003B000C0310008FEE7704710B590F82510002402
:1003C000022903D00421C16301241AE001680A68EC
:1003D00022F00E020A6001680A6822F001020A6037
:1003E00090F84410036C01F01C02012101FA02F2A2
:1003F0005A6080F82510002180F82410816B01B12B
:100400008847204610BD00002DE9F84FDFF898B16D
:1004100000234FF0010C4FF0030A4FF00F090BF1CE
:10042000040EB9E00CFA03F4224070D04D68022D9E
:1004300001D0122D0ED1DD0800EB8508D8F8205030
:100440005E07F70E09FA07F6B5430E69BE402E4364
:10045000C8F8206007685E0091F804800AFA06F583
:1004600008F00308AF4308FA06F848EA0708C0F89E
:1004700000804F68012F05D0022F03D0112F01D02B
:10048000122F13D1D0F80880CF6828EA0508B740AA
:1004900047EA08078760D0F804800F7928EA040843
:1004A000C7F300179F4047EA08074760D1F8048068
:1004B0006FEA0807BF0706D1C76AA743C8F3C0049D
:1004C0009C403C43C462C468AC438D68B54025433E
:1004D000C5604C68E4005ED5344C256E45F00105DE
:1004E0002566246E23F0030504F001040094304CCB
:1004F0002E19B4689D072F0F09FA07F5AC43B0F128
:10050000904F05D02B4DA84204D101251CE042E0BC
:10051000002519E0284DA84201D1022514E0274DFD
:10052000A84201D103250FE0254DA84201D10425A1
:100530000AE0244DA84201D1052505E0224DA8423C
:1005400001D1062500E00725BD402543B560DBF855
:1005500000405D464E689443F60300D514432C607A
:10056000DEF8004075464E689443B60300D5144348
:100570002C600D4D08352C684E689443F60200D56A
:1005800014432C60084D0C352C684E689443B60219
:1005900000D514432C605B1C0A6832FA03F57FF423
:1005A00041AF00F013B80000000401400010024009
:1005B000000001400004004800080048000C00480A
:1005C00000100048001400480018004818BCBDE89E
:1005D000E08F42694A40426170470AB181617047C9
:1005E00081627047014800687047000008000020E1
:1005F00090F84120202A24D190F84020012A20D0D0
:10060000012280F84020242280F8412002681368EB
:1006100023F0010313600268136823F4805313600E
:10062000026813680B43136001680A6842F0010214
:100630000A60202180F84110002180F8401008460F
:1006400070470220704790F84120202A22D190F86C
:100650004020012A1ED0012280F84020242280F868
:1006600041200268136823F00103136002681368D5
:1006700023F4706343EA0121116001680A6842F0C3
:1006800001020A60202180F84110002180F840100A
:10069000084670470220704770B5040004D094F8F3
:1006A0004100002510B106E0012070BD84F84050E3
:1006B000204600F079F9242084F841002068016880
:1006C00021F0010101606068216820F0706008611C
:1006D0002068816821F400418160E0680128A068F9
:1006E00007D040F4044021688860E068022803D005
:1006F00006E040F40040F6E721684FF400604860EF
:1007000020684168114A114341602068C16821F4A2
:100710000041C160D4E904010843A16940EA012015
:100720002168C860D4E9070108432168086020688F
:10073000016841F0010101606564202084F84100F6
:10074000256384F84250002070BD00000080000244
:100750002DE9F84F044690F84100DDF828A01F4627
:1007600090468B4620287ED194F8400001287AD00C
:10077000012084F84000FFF735FF06460122009073
:100780001923D103204601F0DDF9E0BB222084F8D3
:100790004100102084F8420000256564C4F82480DC
:1007A00067856563618D3148FF274FF080784FF092
:1007B0000079FF2903D927853A46009039E0618DF9
:1007C000218500903AE05946204601F0A5F913E052
:1007D00001F0E4F9B8B92068406A616A0870606A9B
:1007E000401C6062208D401E80B22085618D491EB4
:1007F0006185618D01B168B1608D32460028514636
:100800002046E5D100E002E001F00AFAD0B1012073
:1008100000F030B85346002280212046009601F0B7
:1008200091F90028F3D1608DFF2804D927853A4635
:1008300000954346C7E7608D2085009594F82820F1
:100840004B46C0E721682020C86121684A68084BF0
:100850001A404A6084F8410084F8425084F84050BD
:100860000020D5E7FFE70220D2E700000024008047
:1008700000E800FE18BCBDE8E08F00002DE9F84F4D
:10088000044690F84100DDF828A01F4690468B46AC
:1008900020287ED194F8400001287AD0012084F8E5
:1008A0004000FFF79FFE0646012200901923D10366
:1008B000204601F047F9E0BB212084F841001020D8
:1008C00084F8420000256564C4F824806785656368
:1008D000618D3148FF274FF080784FF00079FF2974
:1008E00003D927853A46009039E0618D2185009033
:1008F0003AE05946204601F00FF913E001F0B6F94D
:10090000B8B9606A216800788862606A401C6062D9
:10091000608D401E6085208D401E80B22085618DD7
:1009200001B168B1608D3246002851462046E5D1BC
:1009300000E002E001F074F9D0B1012000F030B81D
:100940005346002280212046009601F0FBF8002843
:10095000F3D1608DFF2804D927853A460095434698
:10096000C7E7608D2085009594F828204B46C0E7A6
:1009700021682020C86121684A68084B1A404A60F3
:1009800084F8410084F8425084F840500020D5E7B4
:10099000FFE70220D2E700000020008000E800FE10
:1009A00018BCBDE8E08F000010B586B004461421E5
:1009B0006846FFF7C2FC1349206888421FD1124CD9
:1009C000E06C40F00200E064E06C694600F0020078
:1009D00005904FF440600090122001900120029099
:1009E00003200390042004900848FFF70DFDA06D3C
:1009F00040F48000A065A06D00F48000059006B072
:100A000010BD0000005800400010024000040048E3
:100A100002480168491C016070470000080000207E
:100A200010B50024032000F08BF8002000F008F837
:100A300008B1012401E000F03DF8204610BD00009F
:100A400000B5014687B000221D2000F059F81D2096
:100A500000F04AF81348816D41F002018165806D14
:100A600005A900F002000690684600F01BFB00F0AC
:100A700039FB0D490D4AB0FBF1F10D48491E0260EA
:100A8000416040F2E7320021C0E90321816000F0BB
:100A9000D4FD10B1012007B000BD054800F0EAFD0B
:100AA000F9E700000010024040420F00000400403F
:100AB000340100200B4882B0016E41F00101016653
:100AC000016E01F001010091816D41F0805181655D
:100AD000806D002200F0805000900F21901E02B027
:100AE00000F00EB80010024000F01F0201219140FA
:100AF0004009800000F1E020C0F8001170470000BC
:100B0000F0B40E4B1B680C46C3F30223C3F1070578
:100B1000042D00D90425191D072901D2002300E066
:100B2000DB1E012606FA05F1491E214099409E4030
:100B3000761E16403143F0BC01F0FAB80CED00E02F
:100B4000064900F0070208684FF6FF03184040EA24
:100B50000220034A10430860704700000CED00E0DB
:100B60000000FA051649B0F5007F0868C0F341207F
:100B700009D0022805D0086820F4C06040F48060E5
:100B80000860002070470128FBD0086820F4C0608E
:100B900040F4007008600B483222006850430A4A53
:100BA000B0FBF2F0401C00E0401E4A69520501D53E
:100BB0000028F9D148694005E3D5032070470000BB
:100BC000007000400C00002040420F000248006806
:100BD00000F4C06070470000007000402DE9F84F3D
:100BE000044600270088E54D3E46010504F1200B30
:100BF0001DD5606E78B1B0F5800F11D0B0F5000F43
:100C000004D0B0F5400F22D001270FE0E86840F48F
:100C10008030E8601BE00021201D01F099F803E01E
:100C20000021584601F02AF9070010D03E462088DE
:100C3000C00426D5A06EC0B1B0F1807F1AD0B0F14B
:100C4000007F0DD0B0F1407F19D0012718E0D5F812
:100C50008800616E20F440000843C5F88800E6E78C
:100C6000E86840F48030E86009E00021201D01F0D0
:100C70006FF803E00021584601F000F90746F7B18C
:100C80003E46206880033AD5A86D4FF00008C000AA
:100C900009D4A86D40F08050A865A86D4FF00108F8
:100CA00000F080500090DFF8D8A2DAF8001041F48C
:100CB0008071CAF80010FFF795FC814610E0D5F866
:100CC0008800A16E20F040700843C5F88800D8E77E
:100CD000FFF788FCA0EB0900022801D9032705E0F3
:100CE000DAF80000C005F3D5002F7CD04FEA0706E4
:100CF000B8F1000F03D0A86D20F08050A8652078CF
:100D0000C00707D0D5F88800A16B20F00300084386
:100D1000C5F888002078800707D5D5F88800E16BF2
:100D200020F00C000843C5F888002078400707D55C
:100D3000D5F88800216C20F030000843C5F8880001
:100D40002078000707D5D5F88800616C20F0C00036
:100D50000843C5F888002078C00607D5D5F8880074
:100D6000A16C20F440700843C5F888002078800604
:100D700007D5D5F88800E16C20F440600843C5F839
:100D800088002088800507D5D5F88800E16D20F41B
:100D900040200843C5F888002088400507D5D5F8CD
:100DA0008800216E20F440100843C5F888002078A0
:100DB000400607D5D5F88800216D20F4405008433F
:100DC000C5F888002078000607D5D5F88800616D41
:100DD00020F440400843C5F888002088C00509D5A4
:100DE000D5F8880000E01CE0A16D20F440300843F5
:100DF000C5F8880020884FF0006780044FF08068B5
:100E00004FD5D5F88800E16E20F040600843C5F862
:100E10008800E06EB8423CD1E86840F48010E86099
:100E20003FE0D5F8900010F4407015D0D4F884104D
:100E3000814211D0D5F89000D5F8901020F4407080
:100E400041F48031C5F89010D5F8901021F480312C
:100E5000C5F89010C5F89000C00710D0FFF7C2FB8E
:100E6000074641F2883906E0FFF7BCFBC11B494544
:100E700001D903263CE7D5F890008007F4D5D5F8D2
:100E80009000D4F8841020F440700843C5F8900016
:100E90002EE7404505D10121201D00F059FF00B18A
:100EA00006462068000317D5D5F88800216F20F08A
:100EB00040600843C5F88800206FB84204D1E86854
:100EC00040F48010E86007E0404505D10121201D75
:100ED00000F03EFF00B106462068400317D5D5F864
:100EE0008800616F20F040600843C5F88800606F9B
:100EF000B84204D1E86840F48010E86007E040455B
:100F000005D10121201D00F023FF00B106462088F5
:100F100040041AD5D5F88800A16F20F0405008434E
:100F2000C5F88800A06FB0F1805F03D0B0F1005F1A
:100F300005D00AE00221201D00F00AFF03E0022193
:100F4000584600F09BFF00B106462088000407D5F4
:100F5000D5F88800E16F20F080400843C5F888008C
:100F60002068C00307D555F8880FD4F8801020F00A
:100F7000004008432860304600F004B800100240EA
:100F80000070004018BCBDE8E08F00002DE9F0477C
:100F90000F46050058D03F4E306800F00700B842B9
:100FA00009D2306820F0070038433060306800F024
:100FB0000700B84248D12878374CC0072CD0686861
:100FC000032811D0022812D0216898B149050029C0
:100FD0003ADAA16821F003010143A160FFF702FBA7
:100FE000804641F2883910E021688901EFE72168E5
:100FF0008903ECE78907EAE7FFF7F4FAA0EB0801B9
:10100000494502D90320BDE8F087A068696800F06F
:101010000C00B0EB810FEFD12878800705D5A068D0
:10102000A96820F0F0000843A060306800F00700D5
:10103000B8420BD9306820F0070038433060306880
:1010400000F00700B84201D00120DCE72878400713
:1010500005D5A068E96820F4E0600843A06028781E
:10106000000706D5A068296920F4605040EAC10055
:10107000A06000F05BF8A168084AC1F30311515C5D
:1010800001F01F01C84006490860BDE8F047002094
:10109000FFF7D6BC0020024000100240403100089B
:1010A0000C0000200F2202600C4A936803F0030337
:1010B0004360936803F0F0038360936803F4E06394
:1010C000C36092684FF4E06303EAD202026104480D
:1010D000006800F007000860704700000010024040
:1010E000002002400548064900688968054AC1F3A6
:1010F0000221515C01F01F01C84070470C00002024
:1011000000100240803100080548064900688968DF
:10111000054AC1F3C221515C01F01F01C84070476C
:101120000C000020001002408031000870B52549F5
:10113000002318468A68CC6812F00C0204F00306FB
:10114000214C4FEA640509D00C2A05D0042A26D088
:10115000082A00D1284670BD012E10D10B681B074C
:1011600004D4D1F89430C3F3032302E00B68C3F333
:101170000313164E56F823307AB10C2AEBD1C86807
:1011800000F00302C868C0F30210401C022A08D015
:10119000032A09D0B3FBF0F008E0184670BD2046E2
:1011A00070BDB4FBF0F001E0B5FBF0F0CA68C968AF
:1011B000C2F306225043C1F34161491C4900B0FB10
:1011C000F1F070BD001002400024F400503100081E
:1011D0002DE9F84305007CD0FD4CA06800F00C061A
:1011E000E06800F003072878C00661D576B10C2EC0
:1011F00001D1012F0AD0A8690028206878D040F0DA
:1012000001002060FFF7EEF9804659E02068800772
:1012100002D5A8690028DED0286A2168090703D50D
:10122000216801F0F00104E0D4F89410F02202EA01
:101230001111884215D900F0A5FE002849D1206877
:1012400040F0080020602068296A20F0F000084380
:1012500020606068E96920F47F4040EA0120606016
:1012600015E0206840F0080020602068296A20F01E
:10127000F000084320606068E96920F47F4040EA9C
:1012800001206060286A00F07DFE0028D6D1FFF7BB
:101290004DFFA168CF4AC1F30311515C01F01F015A
:1012A000C840CD4908600020FFF7CAFB00287DD167
:1012B0002FE000BFFFF796F9A0EB0800022876D8D0
:1012C00020688007F6D5206840F00800206020687C
:1012D00001E0BBE00CE0296A20F0F0000843206048
:1012E0006068E96920F47F4040EA0120606010E016
:1012F00020F001002060FFF775F9804606E000BF8E
:10130000FFF770F9A0EB08000228D8D82068800702
:10131000F6D42878C00740D0082E18D00C2E01D162
:10132000032F14D06868B0F5803F17D0B0F5A02F18
:10133000206817D020F480302060206820F48020BE
:1013400020606868E0B1FFF74DF9804614E020683E
:10135000800322D56868002878D01EE0206840F419
:101360008030EDE740F480202060F7E7FFF73AF99E
:10137000A0EB08006428A2D820688003F6D50CE012
:10138000FFF730F9804605E0FFF72CF9A0EB0800E5
:10139000642894D820688003F6D4287880073BD549
:1013A000042E11D00C2E04D1022F01E036E1A1E071
:1013B0000AD0E868002820681ED040F480702060C1
:1013C000FFF710F907460CE0206840050CD5E868E7
:1013D0000028C1D008E000BFFFF704F9C01B0228B5
:1013E00093D820684005F7D56068297C20F0F85034
:1013F00040EA016060600FE020F480702060FFF739
:10140000F1F8074605E000BFFFF7ECF8C01B022823
:1014100070D820684005F7D42878000729D5686976
:101420000028D4F8940012D040F00100C4F89400D1
:10143000FFF7D8F8074604E0FFF7D4F8C01B0228EE
:1014400058D8D4F894008007F6D512E0EDE020F0EB
:101450000100C4F89400FFF7C5F8074605E000BF97
:10146000FFF7C0F8C01B022844D8D4F894008007C6
:10147000F6D42878400768D5A06D0027C00008D4AE
:10148000A06D40F08050A065A06D012700F0805055
:10149000009052480168C90512D40168814641F4A0
:1014A00080710160FFF79EF8804605E0FFF79AF82B
:1014B000A0EB080002281DD8D9F80000C005F5D51A
:1014C000A868012817D00528D4F8900018D020F07B
:1014D0000100C4F89000D4F8900020F0040000BF90
:1014E000C4F89000A86841F28839D0B1FFF77AF8C3
:1014F000804611E06BE0D4F8900040F00100EFE787
:1015000040F00400C4F89000F5E700BFFFF76AF868
:10151000A0EB080149455AD8D4F890008007F5D5CA
:101520000EE0FFF75FF8804606E000BFFFF75AF8CD
:10153000A0EB0801494570D8D4F890008007F5D495
:101540001FB1A06D20F08050A065A86AF0B30C2EEA
:101550006BD00228206820F08070206004D02068C2
:1015600010F0205F47D04AE0FFF73CF8064604E061
:10157000FFF738F8801B02284FD820688001F7D485
:10158000286BE96A000110380843696BAA6B0902ED
:10159000120941EA42410843A98F114A490802EB66
:1015A0004151084395F840104908120102EB41618E
:1015B0000843E060206840F080702060E06840F000
:1015C0008070E060FFF70EF8054610E02BE024E0A5
:1015D00000100240403100080C0000200070004064
:1015E0000000E0FFFEF7FEFF401B022815D8206830
:1015F0008001F7D517E0E06820F00300E060E068C4
:101600000B490840E060FEF7EDFF054608E000BF2B
:10161000FEF7E8FF401B022802D90320BDE8F8834B
:1016200020688001F4D40020F8E70120F6E70000EC
:10163000FFFFEEFE70477047704710B5040003D0FF
:1016400094F83D0010B107E0012010BD002084F89F
:101650003C00204600F00CF8022084F83D00211DDB
:10166000206800F04BFD012084F83D00002010BDF3
:10167000704700000168CA6842F00102CA60006851
:10168000826807490A40062A08D082680A40B2F5F3
:10169000803F03D0016841F00101016000207047E4
:1016A00007000100704770B50446006801694FF0FB
:1016B0000005C943890715D4C168C943890711D4F6
:1016C000E91E01610120207720688069800720469B
:1016D00002D0FFF7E7FF04E000F0A7F8204600F093
:1016E000A5F8257720680169C943490717D4C1685F
:1016F000C943490713D46FF0040101610220207728
:101700002068806910F4407F204602D0FFF7CAFFAE
:1017100004E000F08AF8204600F088F82577206879
:101720000169C943090716D4C168C943090712D41E
:101730006FF008010161042020772068C0698007EC
:10174000204602D0FFF7AEFF04E000F06EF820461E
:1017500000F06CF8257720680169C943C90617D4E1
:10176000C168C943C90613D46FF010010161082094
:1017700020772068C06910F4407F204602D0FFF730
:1017800091FF04E000F051F8204600F04FF8257773
:1017900020680169C943C90708D1C168C943C9079D
:1017A00004D1891E0161204600F042F820680169D9
:1017B000C943090609D4C168C943090605D46FF0B5
:1017C000800101612046FFF736FF20680169C943A7
:1017D000C90509D4C168C943090605D46FF48071ED
:1017E00001612046FFF726FF20680169C9434906C9
:1017F00009D4C168C943490605D46FF040010161AD
:10180000204600F01FF820680169C94389060BD4FF
:10181000C168C943890607D46FF0200101612046E1
:10182000BDE87040FFF708BF70BD7047704700000B
:1018300000680349884201D1FFF7EAB87047000009
:101840000004004070477047704700002DE9F041E8
:1018500002680446D0691168936810F00F0F4FF0CA
:1018600000055BD003F0010601F49077374369D09F
:10187000C70707D0CF0505D501271762626F42F071
:1018800001026267820708D5DA0706D027680222BC
:101890003A62626F42F004026267420708D5DA07D3
:1018A00006D0236804221A62626F42F00202626765
:1018B00002070AD501F02002324306D0236808222D
:1018C0001A62626F42F008026267626F002A32D0C9
:1018D000800605D5880603D5216E09B120468847C4
:1018E000606F000703D420688068400625D5204635
:1018F00000F006FD20688168490619D5816821F04D
:1019000040018160E06E98B120498163E06EFEF78E
:1019100053FD00280FD0E06E816B06E0860611D5DE
:101920008E060FD5216E1EE02046BDE8F041084727
:101930002046FFF789FFBDE8F0812046FFF784FFCE
:101940006567F8E7C60209D55B0207D54FF480103A
:1019500010622046BDE8F041FFF775BF030605D5CC
:101960000B0603D5616E0029DED1E4E74006E2D51F
:101970004806E0D51168204621F040011160202181
:1019800084F87110656600F071F8D4E7ED22000864
:1019900010B5040003D094F8710010B107E00120E5
:1019A00010BD002084F87000204600F027F82420A5
:1019B00084F871002068016821F00101016020466F
:1019C00000F0AEFC0128EBD0606A10B1204600F0B8
:1019D000FBFB2068416821F49041416020688168E8
:1019E00021F02A0181602068016841F00101016055
:1019F0002046BDE8104000F04BBC000010B586B09A
:101A0000044614216846FEF798FC1649206888426F
:101A100026D11548816D41F400218165816D01F465
:101A200000210591C16C41F00101C164C06C02212B
:101A300000F0010005900320CDE900010021CDE96F
:101A400002100820049069464FF09040FEF7DCFC3D
:101A5000002205213420FFF753F83420FFF744F823
:101A600006B010BD004C0040001002407047FEE779
:101A700001688A69D243920701D400228A62006811
:101A80008169C943C90703D0816941F001018161BE
:101A9000704700002DE9F0410446006890460E466C
:101AA0008069C043C00633D40025202720688069A0
:101AB000C043800615D5701CF8D0FEF793FDA0EB4F
:101AC0000800B04201D8002EF0D154F8440F40F085
:101AD000200044F804096770A57025700120BDE856
:101AE000F08121681020C8612068C7612046FFF797
:101AF000BFFF54F8440B4168064A1140416020681A
:101B000040F0040044F820096777A5772577E5E7DA
:101B10000020E4E700E800FEF0B50568059C686871
:101B20004FF48066064FC1F3090106EA545641EAB4
:101B300002413E431943B043214308436860F0BD6E
:101B4000FF63FF032DE9F0411D4617460E4604468C
:101B5000DDF8188008E0681C06D0FEF743FDA0EB16
:101B60000800A8420BD855B12068806936EA000009
:101B700012D00020B842EED00020BDE8F08154F829
:101B8000440F40F0200044F8040920206070002039
:101B9000A07020700120F0E70120EBE72DE9F04173
:101BA000002690460F460446202525E04246394649
:101BB0002046FFF76FFF78BB20688069C04380062E
:101BC00013D420688169C943490701D4218DC1B963
:101BD000C56154F8440B4168104A1140416044F813
:101BE00020696577A677267716E0FEF7FBFCA0EB69
:101BF0000800B84208D83FB120688069C043400758
:101C0000D4D40020BDE8F08154F8440F40F0200007
:101C100044F80409657026700120F3E700E800FE2F
:101C200070B516460D4604460DE03246294620465C
:101C3000FFF730FF08B1012070BDFEF7D3FC801B19
:101C4000A84207D835B120688069C0438006ECD42B
:101C5000002070BD54F8440F40F0200044F80409FF
:101C6000202060700020A0702070E4E770B5164658
:101C70000D4604460FE0324629462046FFF70AFF8C
:101C800008B1012070BD681C05D0FEF7ABFC801BBD
:101C9000A84207D835B120688069C0438007EAD4DC
:101CA000002070BD54F8440F40F0200044F80409AF
:101CB000202060700020A0702070E2E70E4810B570
:101CC0000C4901600D49416000210122C0E9021266
:101CD000016141618161C1610162FEF7DDFC0021AA
:101CE0000548FEF785FCBDE8104000210248FEF7DC
:101CF000AABC00000058004070000020EC9C90102E
:101D00000948084901604FF4E131416000218160D8
:101D10000C22C160C0E904128161C16101624162AB
:101D2000FFF736BE004C0040BC000020FEE77047C5
:101D30000907090E002806DA00F00F0000F1E02084
:101D400080F8141D704700F1E02080F800147047FF
:101D50002DE9F041444C05468846E068002681079D
:101D600028680DD0E16801F00301814216D1A8B1C5
:101D7000E0686968C0F30210401C88420ED120E080
:101D8000012804D0022805D0032807D108E02168E3
:101D9000890701E021684905002907DB01265FE08A
:101DA0002168890302D421684903F5E7E1686A687C
:101DB0006FF00F0321F0730103EB02121143014393
:101DC000E160206820F080602060FEF70BFC074691
:101DD00005E000BFFEF706FCC01B022837D82068CC
:101DE0000001F7D4B8F1000F18D0B8F1010F1ED0E0
:101DF000287D4FF07E41400801EB4060A96840EA31
:101E000001202169194A114008432061206840F0EF
:101E100080602060FEF7E6FB07461AE0A868E968E4
:101E20000002090940EA41402169114AEBE7288A8A
:101E30001049400801EB4050A96840EA012021699F
:101E40000D4AE0E7FEF7CEFBC01B022801D90326AE
:101E500006E020680001F5D52069A96908432061E2
:101E60003046BDE8F081000000100240FF80FFF91D
:101E7000FF80FDFF0000E0FFFF809FFF2DE9F041A4
:101E80003D4C06468846E0680025810730680DD045
:101E9000E16801F00301814216D1A8B1E0687168E0
:101EA000C0F30210401C88420ED120E0012804D06B
:101EB000022805D0032807D108E02168890701E03E
:101EC00021684905002907DB012551E021688903C4
:101ED00002D421684903F5E7E16872686FF00F03E7
:101EE00021F0730103EB021211430143E16020680A
:101EF00020F080502060FEF775FB074605E000BF2C
:101F0000FEF770FBC01B022829D820688000F7D498
:101F1000B8F1000F15D0307C4FF07E41400801EB46
:101F20004060B16840EA01206169144A11400843E9
:101F30006061206840F080502060FEF753FB074648
:101F40000FE0B068F1680002090940EA41406169A8
:101F50000B4AEBE7FEF746FBC01B022801D903251D
:101F600006E020688000F5D560697169084360610A
:101F70002846BDE8F081000000100240FF80FFF914
:101F8000FF80FDFFF8B51C4D06460024A86DC0007B
:101F900002D5FEF71BFE0DE0A86D40F08050A8654D
:101FA000A86D00F080500090FEF710FEA96D21F0A2
:101FB0008051A965B0F5007F04D0802E07D94FF07D
:101FC00003040AE0802E08D9A02E01D804E001D134
:101FD000022402E0702E00D101240848016821F09B
:101FE000070121430160006800F00700A04201D012
:101FF0000120F8BD0020F8BD001002400020024082
:10200000012000F075FBFBE710B5502080F311882C
:10201000BFF34F8FBFF36F8F00F0B8FF18B10449C3
:102020004FF080500860002080F3118810BD000040
:1020300004ED00E010B5B8B0442122A8FEF77DF908
:10204000142133A8FEF779F988216846FEF775F95F
:10205000102022900120002460212890CDE9294100
:102060000221CDE92C102E9028202F900720CDE9B9
:10207000300122A83291FFF7ABF80F2033900320F4
:10208000CDE934043694042133A83794FEF77EFF5B
:1020900088200090119415946846FEF79FFD4FF438
:1020A0000070FEF75FFD38B010BD00000D480168FC
:1020B00041F4700101600C48016841F001010160C8
:1020C000002181600268094B1A4002608214C260DC
:1020D000026822F48022026081610249C0038039D3
:1020E0000860704788ED00E000100240FFFFF6EA4C
:1020F0000148FFF7D8BA0000340100202DE9F0476D
:102100000268264B264D274E274F284C4FF0804A19
:10211000984209D0504507D0A84205D0B04203D01C
:10212000B84201D0A04204D122F0700C4A6842EAC1
:102130000C02DFF87CC0DFF87C80DFF87C909842EE
:102140000FD050450DD0A8420BD0B04209D0B842B4
:1021500007D0A04205D0604503D0404501D0484596
:1021600003D122F44075CA682A434D6922F08002E7
:102170002A4302608A68C2620A688262984207D073
:10218000A04205D0604503D0404501D0484501D16B
:102190000969016301214161BDE8F087002C01401C
:1021A0000004004000080040000C004000340140E2
:1021B0000040014000440140004801400148FFF751
:1021C00045BB0000BC00002090F82410C90706D0D1
:1021D00001684A68836A22F400321A434A6090F820
:1021E0002410890706D501684A68C36A22F4803240
:1021F0001A434A6090F82410490706D501684A68D6
:10220000036B22F480221A434A6090F824100907D5
:1022100006D501684A68436B22F400421A434A60BB
:1022200090F82410C90606D501688A68836B22F4E9
:1022300080521A438A6090F82410890606D50168F6
:102240008A68C36B22F400521A438A6090F8241003
:10225000490611D501684A68036C22F480121A43BA
:102260004A60016CB1F5801F06D101684A68436C71
:1022700022F4C0021A434A6090F82410090606D5D9
:1022800001684A68806C22F4002202434A60704769
:10229000F8B5002604464667FEF7A4F9054620680F
:1022A00000686FF07E47000708D52B4600224FF4E8
:1022B00000112046009700F083F960B9206800689B
:1022C00040070AD52B4600224FF480012046009794
:1022D00000F076F908B10320F8BD202084F87100E1
:1022E00084F8720084F870600020F8BD10B5806A30
:1022F0000021A0F85A10A0F85210FFF7A5FA10BD5F
:1023000001680A6822F490720A6001688A6822F003
:1023100001028A60202180F8721000210166704756
:102320002DE9F0410446016880682369E669184395
:1023300063691025002733431843954A0B68954E6F
:10234000334003430B6020684168E36821F4405147
:10235000194341602168A069914201D0236A184362
:102360008B6823F4306303438B608B4B21688B486D
:1023700099420DD1D0F8880010F0030006D0012852
:102380005AD0022856D0032859D157E0012556E0EB
:10239000834B99420BD1D0F8880010F00C0047D045
:1023A000042849D0082845D00C2848D146E07D4B68
:1023B00099420BD1D0F8880010F0300038D01028A6
:1023C0003AD0202836D0302839D137E0764B9942A0
:1023D0000BD1D0F8880010F0C00029D040282BD0B5
:1023E000802827D0C0282AD128E0704B99420ED1EE
:1023F000D0F8880010F440701AD0B0F5807F1BD060
:10240000B0F5007F16D0B0F5407F18D116E09142AC
:1024100015D1D0F8880010F4406009D0B0F5806F75
:102420000AD0B0F5006F05D0B0F5406F07D105E0D8
:10243000002504E0022502E0042500E008255C4BAD
:1024400000264FF4004091423DD135B1022D07D016
:10245000042D07D0082D10D107E0FEF743FE03E05E
:10246000184602E0FEF762FEA8B3626802EB420182
:10247000814202D8B0EB023F01D9012775E0DFF8B5
:1024800034815DB1022D0CD0042D13D0082DF4D170
:1024900050082905401846F1000105E0FEF722FE2C
:1024A0000AE050084449F5E70023FDF7F9FEA0F5DE
:1024B000407156E0FEF73AFE6268010E03025008D2
:1024C00018187141F0E7E1694FF6EF7881422FD19A
:1024D000092DD2D200E048E0DFE805F0060920052A
:1024E000230505052600C8E7FEF7FCFD01E0FEF721
:1024F0000BFE4100D4F8040001EB5001B1FBF0F0F9
:1025000080B2A0F110014145B7D84FF6F0710140FB
:10251000C0F3420001432068C16026E0274960689B
:10252000EAE7FEF703FEE4E74FF480316068E3E793
:10253000092DA2D2DFE805F006091E0522050505D2
:1025400025009AE7FEF7CEFD01E0FEF7DDFD01462E
:10255000606801EB500100BFB1FBF0F080B2A0F168
:102560001001414589D82168C860266638466666EC
:10257000BDE8F081606803EB5001EDE7FEF7D6FDA2
:10258000E5E7616800EB5100B0FBF1F0E6E7000021
:1025900000800040F369FFEF003801400010024066
:1025A0000044004000480040004C00400050004003
:1025B0000024F400FFFC0F00000024F40048E801B0
:1025C0002DE9F041984617460E460446069D1DE04B
:1025D000681C1BD02DB1FEF705F8A0EB0800A8423F
:1025E00014D92068016821F4D071016020688168E5
:1025F00021F001018160202084F8710084F87200CC
:10260000002084F870000320BDE8F0812068C069D4
:1026100036EA000004D00020B842D9D00020F3E709
:102620000120F9E7FEE702E008C8121F08C1002AEE
:10263000FAD170477047002001E001C1121F002A43
:10264000FBD1704790B0FEF7EBF9FFF7F3FC1421D4
:102650006846FDF772FE1F48C16C41F00101C1647C
:10266000C16C01F001010F91C16C41F00201C16424
:10267000C06C012200F00200174D94030F90214618
:102680002846FDF7AAFF012000210094CDE90101B1
:10269000039169462846FDF7B7FEFFF731FBFFF7C8
:1026A0000DFB14220D4905A8FDF72EFE002105A8FB
:1026B00000F02AF80A4C09491422206014310AA8B3
:1026C000FDF722FE00210AA800F01EF8606000F06D
:1026D00016F8FEE700100240000400481831000818
:1026E0000000002001460020842900D0C81C70474B
:1026F00010B500B9012000F011FB002010BD10B58D
:1027000000F032FB002010BD3EB504460D46B0F986
:102710000800FFF7E7FF02A9CDE90001208A2B4658
:1027200082B2D4E9001000F003FC012801D000209F
:102730003EBD02983EBD00002DE9F041184C0F4609
:10274000054666692068001D00F02EFA38B9206839
:1027500090F82C1001208840A1698143A161681C78
:1027600007D137B12168BDE8F0410E48091D00F0DE
:1027700054BA20683544B5424560216805D2A06846
:10278000BDE8F041091D00F030BA6068091D00F095
:102790002CFA206B854200D22563BDE8F081000051
:1027A00010000020500200202DE9F041054600F005
:1027B00041FA2E4C2069401C206120682C4F10B13A
:1027C000E06940B32DE025602069012829D1002669
:1027D00006EB860007EB800000F0F9F9761C072E67
:1027E000F6D323488C3000F0F2F92148A03000F0F5
:1027F000EEF91F48B43000F0EAF91D48C83000F087
:10280000E6F91B48DC3000F0E2F919488C306060D2
:102810001430A06005E02068E96AC06A884200D8E8
:102820002560E06A401CE062E96A0120A2698840F4
:102830001043A06101EB810007EB8000291D00F02F
:10284000ECF900F017FAE06900280CD02068E96A7A
:10285000C06A884207D207494FF080500860BFF332
:102860004F8FBFF36F8FBDE8F08100001000002094
:102870007401002004ED00E010B50446006B00F088
:102880000DFA2046BDE8104000F008BA0F4840F6A7
:10289000B831420705D0C01D0C4A20F00700821A4B
:1028A000891A0B4A00230144C2E900030839103A8F
:1028B00021F0070111604B600B600B1AC0E9001397
:1028C00093604FF000405360D06070476402002076
:1028D0005C000020144E154CA6F1C8074FF080583C
:1028E000DFF84C9012E000BF00F0A4F9F068C56872
:1028F000281D00F059F92069401E2061E068401E43
:10290000E06000F0B7F92846FFF7B6FFE06800285E
:10291000EAD138680128F9D9C9F80080BFF34F8F90
:10292000BFF36F8FF2E700003C0200201000002090
:1029300004ED00E02DE9F0479A46DDE9098481467F
:102940006FF00303206B03EB82021044089D20F01C
:102950000706700707D0502080F31188BFF34F8F10
:10296000BFF36F8FFEE723180A5C83F834200A5CFC
:1029700012B1401C1028F6D3002784F84370072DAD
:1029800000D30625E562C4E91157201D00F02AF99D
:1029900004F1180000F026F92461C5F10700646213
:1029A000A061E76484F8507052464946304600F012
:1029B000BFF82060B8F1000F01D0C8F80040BDE8B2
:1029C000F087000030B5114900E011460A688242E4
:1029D000FBD34B685C18844203D1406818444860BC
:1029E000084643681C18944209D1084C103C2468DE
:1029F000A24209D052681A4442600A681268026012
:102A0000814200D0086030BD0460F9E75C0000201E
:102A100006484168096829B14168C968C9684968B8
:102A2000016370474FF0FF31FAE70000100000200B
:102A300008484068401C4FF0500080F3118804D0D3
:102A4000BFF34F8FBFF36F8FFEE7BFF34F8FBFF31F
:102A50006F8FFEE7640000202DE9F0410546002756
:102A600000F0B6F9314E306808B9FFF70FFFF06893
:102A700005424BD1C5B3083568070ED005F00700F5
:102A8000C0F108000544680707D0502080F3118882
:102A9000BFF34F8FBFF36F8FFEE72DB37068854292
:102AA00034D82248103001460C6801E020460C461C
:102AB0006168A94202D221680029F7D131688C42AD
:102AC00024D007682168016060680837411B10291D
:102AD0000FD96019420708D0502080F31188BFF346
:102AE0004F8FBFF36F8FFEE710E041606560FFF727
:102AF00069FF61687068401A7060B268904200D2E5
:102B0000B060F06801430020C4E9000100F0A2FABF
:102B1000780707D0502080F31188BFF34F8FBFF3A1
:102B20006F8FFEE73846BDE8F08100004C000020C2
:102B300010B5031F4FF080741C601B1F21F00101B2
:102B40001960191F044B0B6014390A60091F6FF0DC
:102B5000020244380A6010BD312A00080EB51C205C
:102B60008DF8040000200E4F4FF47A754FF4804624
:102B70000A2402902846FFF7BBFD31463846FDF790
:102B800028FD012301AABE2106480094FDF776FE28
:102B9000042302AABF2103480094FDF7D9FDE9E709
:102BA0000004004870000020D0E9013201699A60F9
:102BB000D0E901235A604A68824201D182684A60A2
:102BC000002202610868401E08600868704700F132
:102BD00008014FF0FF32C0E90112C160016100211C
:102BE0000160704700210161704730B50B685A1CC5
:102BF00002D000F1080202E0026904E022465468B3
:102C000025689D42FAD953684B6099608A6051608B
:102C100008610168491C016030BD42684A609368E0
:102C20008B6093685960916008610168491C01607C
:102C300070470000502080F31188BFF34F8FBFF31F
:102C40006F8F0A494868401C486001280CD1084829
:102C5000006810F0FF0F07D0502080F31188BFF3F9
:102C60004F8FBFF36F8FFEE77047000064000020B6
:102C700004ED00E00849486828B1401E486001D1D1
:102C800080F311887047502080F31188BFF34F8F75
:102C9000BFF36F8FFEE700006400002070B50028CE
:102CA00027D0144DA0F108046168E868014207D1FB
:102CB000502080F31188BFF34F8FBFF36F8FFEE773
:102CC00022683AB1502080F31188BFF34F8FBFF3D1
:102CD0006F8FFEE78143616000F07AF86068696891
:102CE000084468602046FFF76DFEBDE8704000F0C4
:102CF000B1B970BD4C0000204FF0E020002101610F
:102D0000816105494FF47A720968B1FBF2F1491EFD
:102D100041610721016170470C00002010B50200DD
:102D200014D00F48806B38B1502080F31188BFF366
:102D30004F8FBFF36F8FFEE700F04AF80021104677
:102D4000FFF7FAFC00F086F9002807D105494FF09B
:102D500080500860BFF34F8FBFF36F8F10BD00002E
:102D60001000002004ED00E01CB515480024CDE95A
:102D700000402346802213A1144800F0D9F801280E
:102D800009D0401C1AD1502080F31188BFF34F8F17
:102D9000BFF36F8FFEE7502080F31188BFF34F8F92
:102DA000BFF36F8F06484FF0FF31343801630121C4
:102DB000C1614461BDE81C4000F040B81CBD00008A
:102DC0004400002049444C4500000000D52800087C
:102DD0000248816B491C816370470000100000208D
:102DE0001448816B11B10121416270470021416299
:102DF0008169B1FA81F1C1F11F0101EB81020E4934
:102E000051F822306BB101EB820101F108034A68ED
:102E100052684A609A4201D152684A60D1680160A2
:102E20007047502080F31188BFF34F8FBFF36F8F2F
:102E3000FEE7000010000020740100201CB5374898
:102E40000168374A914207D1502080F31188BFF3BF
:102E50004F8FBFF36F8FFEE700683149491E8842EC
:102E600007D1502080F31188BFF34F8FBFF36F8FCE
:102E7000FEE72C4908780190FF20087008788DF84B
:102E800000009DF800009DF8002000F0F000904246
:102E900007D0502080F31188BFF34F8FBFF36F8F9F
:102EA000FEE79DF80000204B00F05000187007204E
:102EB000986005E09DF8002052008DF80020401E2B
:102EC0009DF800201206F5D49860032807D0502002
:102ED00080F31188BFF34F8FBFF36F8FFEE74FF47E
:102EE00040709860019808700C482030016841F4E7
:102EF00070010160016841F070410160FFF7FCFE64
:102F000000205860FDF76EF90848016841F0404123
:102F10000160FDF753F900201CBD000000ED00E04A
:102F200071C20F4100E400E06400002034EF00E0D3
:102F30002DE9FF5F8346DDE90E87994616468A46EE
:102F40009000FFF789FD05001AD05420FFF784FD9B
:102F5000040012D025630021CDE90241CDE90087AC
:102F60004B46324651465846FFF7E4FC2046FFF7F1
:102F70001BFC012004B000F006B82846FFF78EFEC7
:102F80004FF0FF30F6E730BCBDE8C09F2DE9F041BF
:102F90002E4C0027A06B40B1206A401C2062606A62
:102FA00000B101273846BDE8F0816669761C66618C
:102FB00013D16068006838B1502080F31188BFF3E6
:102FC0004F8FBFF36F8FFEE76068A1686160A060FC
:102FD000A06A401CA062FFF71BFD206BDFF8708029
:102FE000864209D36068006880B16068C068C568BF
:102FF000686886420DD220632068C06A00EB8001B9
:1030000058F821000128CAD90127C8E74FF0FF303E
:10301000F1E7281DFFF7C8FDA86A18B105F11800EF
:10302000FFF7C2FDE86A0121A26981401143A16155
:1030300000EB800108EB8100291DFFF7EEFDE86A37
:103040002168C96A8842CDD30127CBE71000002050
:10305000740100202DE9F0472C4D00242746A86B71
:1030600038B1FFF7E7FDA86B401EA863A86B40B11D
:1030700046E0502080F31188BFF34F8FBFF36F8F6E
:10308000FEE72969224E0120D1B3A6F1B40980469A
:103090003068E8B1F068C46804F11800FFF784FDF7
:1030A000201DFFF781FDE06AAA6908FA00F11143CB
:1030B000A96100EB800109EB8100211DFFF7ADFD47
:1030C000E06A2968C96A8842E2D3C5F82480DFE74C
:1030D0000CB1FFF79DFC2C6A44B14646FFF756FF42
:1030E00000B16E62641EF9D100202862686A38B1AE
:1030F0000849012738070860BFF34F8FBFF36F8F70
:10310000FFF7B8FD3846BDE8F0870000100000204A
:103110002802002004ED00E08831000801200008AA
:103120000000000000000000800000009431000852
:103130005D2B0008FDFF0000000000008000000083
:103140000000000000000000010203040607080957
:10315000A0860100400D0300801A060000350C0017
:1031600040420F0080841E0000093D0000127A00DA
:103170000024F40000366E010048E801006CDC0217
:10318000000000000102030464656661756C7454FC
:1031900061736B00745461736B313030306D730048
:1031A000C031000800000020700000002626000842
:1031B0003032000870000020B011000036260008F0
:1031C00000000000000000000000000000093D00B9
:1031D00000000000000000000000000000000000EF
:1031E00000000000000000000000000000000000DF
:1031F00000000000000000000000000000000000CF
:1032000000000000000000000000000000000000BE
:1032100000000000000000000000000000000000AE
:103220000000000000000000AAAAAAAA00000000F6
:040000050800018965
:00000001FF
